{
  "abi": [
    {
      "type": "function",
      "name": "UPGRADE_INTERFACE_VERSION",
      "inputs": [],
      "outputs": [
        {
          "name": "",
          "type": "string",
          "internalType": "string"
        }
      ],
      "stateMutability": "view"
    },
    {
      "type": "function",
      "name": "addCollateralTokens",
      "inputs": [
        {
          "name": "_tokens",
          "type": "address[]",
          "internalType": "address[]"
        },
        {
          "name": "_priceFeeds",
          "type": "bytes4[]",
          "internalType": "bytes4[]"
        }
      ],
      "outputs": [],
      "stateMutability": "nonpayable"
    },
    {
      "type": "function",
      "name": "addLoanableToken",
      "inputs": [
        {
          "name": "_token",
          "type": "address",
          "internalType": "address"
        },
        {
          "name": "_priceFeed",
          "type": "bytes4",
          "internalType": "bytes4"
        }
      ],
      "outputs": [],
      "stateMutability": "nonpayable"
    },
    {
      "type": "function",
      "name": "createLendingRequest",
      "inputs": [
        {
          "name": "_amount",
          "type": "uint256",
          "internalType": "uint256"
        },
        {
          "name": "_interest",
          "type": "uint8",
          "internalType": "uint8"
        },
        {
          "name": "_returnDate",
          "type": "uint256",
          "internalType": "uint256"
        },
        {
          "name": "_loanCurrency",
          "type": "address",
          "internalType": "address"
        }
      ],
      "outputs": [],
      "stateMutability": "nonpayable"
    },
    {
      "type": "function",
      "name": "depositCollateral",
      "inputs": [
        {
          "name": "_tokenCollateralAddress",
          "type": "address",
          "internalType": "address"
        },
        {
          "name": "_amountOfCollateral",
          "type": "uint256",
          "internalType": "uint256"
        }
      ],
      "outputs": [],
      "stateMutability": "nonpayable"
    },
    {
      "type": "function",
      "name": "getAccountCollateralValue",
      "inputs": [
        {
          "name": "_user",
          "type": "address",
          "internalType": "address"
        }
      ],
      "outputs": [
        {
          "name": "_totalCollateralValueInUsd",
          "type": "uint256",
          "internalType": "uint256"
        }
      ],
      "stateMutability": "view"
    },
    {
      "type": "function",
      "name": "getAllCollateralToken",
      "inputs": [],
      "outputs": [
        {
          "name": "",
          "type": "address[]",
          "internalType": "address[]"
        }
      ],
      "stateMutability": "view"
    },
    {
      "type": "function",
      "name": "getAllOfferForUser",
      "inputs": [
        {
          "name": "_borrower",
          "type": "address",
          "internalType": "address"
        },
        {
          "name": "_requestId",
          "type": "uint96",
          "internalType": "uint96"
        }
      ],
      "outputs": [
        {
          "name": "",
          "type": "tuple[]",
          "internalType": "struct Protocol.Offer[]",
          "components": [
            {
              "name": "offerId",
              "type": "uint256",
              "internalType": "uint256"
            },
            {
              "name": "tokenAddr",
              "type": "address",
              "internalType": "address"
            },
            {
              "name": "author",
              "type": "address",
              "internalType": "address"
            },
            {
              "name": "amount",
              "type": "uint256",
              "internalType": "uint256"
            },
            {
              "name": "interest",
              "type": "uint8",
              "internalType": "uint8"
            },
            {
              "name": "returnDate",
              "type": "uint256",
              "internalType": "uint256"
            },
            {
              "name": "offerStatus",
              "type": "uint8",
              "internalType": "enum Protocol.OfferStatus"
            }
          ]
        }
      ],
      "stateMutability": "view"
    },
    {
      "type": "function",
      "name": "getAllRequest",
      "inputs": [],
      "outputs": [
        {
          "name": "",
          "type": "tuple[]",
          "internalType": "struct Protocol.Request[]",
          "components": [
            {
              "name": "requestId",
              "type": "uint96",
              "internalType": "uint96"
            },
            {
              "name": "author",
              "type": "address",
              "internalType": "address"
            },
            {
              "name": "amount",
              "type": "uint256",
              "internalType": "uint256"
            },
            {
              "name": "interest",
              "type": "uint8",
              "internalType": "uint8"
            },
            {
              "name": "_totalRepayment",
              "type": "uint256",
              "internalType": "uint256"
            },
            {
              "name": "offer",
              "type": "tuple[]",
              "internalType": "struct Protocol.Offer[]",
              "components": [
                {
                  "name": "offerId",
                  "type": "uint256",
                  "internalType": "uint256"
                },
                {
                  "name": "tokenAddr",
                  "type": "address",
                  "internalType": "address"
                },
                {
                  "name": "author",
                  "type": "address",
                  "internalType": "address"
                },
                {
                  "name": "amount",
                  "type": "uint256",
                  "internalType": "uint256"
                },
                {
                  "name": "interest",
                  "type": "uint8",
                  "internalType": "uint8"
                },
                {
                  "name": "returnDate",
                  "type": "uint256",
                  "internalType": "uint256"
                },
                {
                  "name": "offerStatus",
                  "type": "uint8",
                  "internalType": "enum Protocol.OfferStatus"
                }
              ]
            },
            {
              "name": "returnDate",
              "type": "uint256",
              "internalType": "uint256"
            },
            {
              "name": "lender",
              "type": "address",
              "internalType": "address"
            },
            {
              "name": "loanRequestAddr",
              "type": "address",
              "internalType": "address"
            },
            {
              "name": "status",
              "type": "uint8",
              "internalType": "enum Protocol.Status"
            }
          ]
        }
      ],
      "stateMutability": "view"
    },
    {
      "type": "function",
      "name": "getLoanableAssets",
      "inputs": [],
      "outputs": [
        {
          "name": "_assets",
          "type": "address[]",
          "internalType": "address[]"
        }
      ],
      "stateMutability": "view"
    },
    {
      "type": "function",
      "name": "getRequestById",
      "inputs": [
        {
          "name": "_requestId",
          "type": "uint96",
          "internalType": "uint96"
        }
      ],
      "outputs": [
        {
          "name": "",
          "type": "tuple",
          "internalType": "struct Protocol.Request",
          "components": [
            {
              "name": "requestId",
              "type": "uint96",
              "internalType": "uint96"
            },
            {
              "name": "author",
              "type": "address",
              "internalType": "address"
            },
            {
              "name": "amount",
              "type": "uint256",
              "internalType": "uint256"
            },
            {
              "name": "interest",
              "type": "uint8",
              "internalType": "uint8"
            },
            {
              "name": "_totalRepayment",
              "type": "uint256",
              "internalType": "uint256"
            },
            {
              "name": "offer",
              "type": "tuple[]",
              "internalType": "struct Protocol.Offer[]",
              "components": [
                {
                  "name": "offerId",
                  "type": "uint256",
                  "internalType": "uint256"
                },
                {
                  "name": "tokenAddr",
                  "type": "address",
                  "internalType": "address"
                },
                {
                  "name": "author",
                  "type": "address",
                  "internalType": "address"
                },
                {
                  "name": "amount",
                  "type": "uint256",
                  "internalType": "uint256"
                },
                {
                  "name": "interest",
                  "type": "uint8",
                  "internalType": "uint8"
                },
                {
                  "name": "returnDate",
                  "type": "uint256",
                  "internalType": "uint256"
                },
                {
                  "name": "offerStatus",
                  "type": "uint8",
                  "internalType": "enum Protocol.OfferStatus"
                }
              ]
            },
            {
              "name": "returnDate",
              "type": "uint256",
              "internalType": "uint256"
            },
            {
              "name": "lender",
              "type": "address",
              "internalType": "address"
            },
            {
              "name": "loanRequestAddr",
              "type": "address",
              "internalType": "address"
            },
            {
              "name": "status",
              "type": "uint8",
              "internalType": "enum Protocol.Status"
            }
          ]
        }
      ],
      "stateMutability": "view"
    },
    {
      "type": "function",
      "name": "getUsdValue",
      "inputs": [
        {
          "name": "_token",
          "type": "address",
          "internalType": "address"
        },
        {
          "name": "_amount",
          "type": "uint256",
          "internalType": "uint256"
        }
      ],
      "outputs": [
        {
          "name": "",
          "type": "uint256",
          "internalType": "uint256"
        }
      ],
      "stateMutability": "view"
    },
    {
      "type": "function",
      "name": "getUserEmail",
      "inputs": [
        {
          "name": "_user",
          "type": "address",
          "internalType": "address"
        }
      ],
      "outputs": [
        {
          "name": "",
          "type": "string",
          "internalType": "string"
        }
      ],
      "stateMutability": "view"
    },
    {
      "type": "function",
      "name": "getUserRequest",
      "inputs": [
        {
          "name": "_user",
          "type": "address",
          "internalType": "address"
        },
        {
          "name": "_requestId",
          "type": "uint96",
          "internalType": "uint96"
        }
      ],
      "outputs": [
        {
          "name": "",
          "type": "tuple",
          "internalType": "struct Protocol.Request",
          "components": [
            {
              "name": "requestId",
              "type": "uint96",
              "internalType": "uint96"
            },
            {
              "name": "author",
              "type": "address",
              "internalType": "address"
            },
            {
              "name": "amount",
              "type": "uint256",
              "internalType": "uint256"
            },
            {
              "name": "interest",
              "type": "uint8",
              "internalType": "uint8"
            },
            {
              "name": "_totalRepayment",
              "type": "uint256",
              "internalType": "uint256"
            },
            {
              "name": "offer",
              "type": "tuple[]",
              "internalType": "struct Protocol.Offer[]",
              "components": [
                {
                  "name": "offerId",
                  "type": "uint256",
                  "internalType": "uint256"
                },
                {
                  "name": "tokenAddr",
                  "type": "address",
                  "internalType": "address"
                },
                {
                  "name": "author",
                  "type": "address",
                  "internalType": "address"
                },
                {
                  "name": "amount",
                  "type": "uint256",
                  "internalType": "uint256"
                },
                {
                  "name": "interest",
                  "type": "uint8",
                  "internalType": "uint8"
                },
                {
                  "name": "returnDate",
                  "type": "uint256",
                  "internalType": "uint256"
                },
                {
                  "name": "offerStatus",
                  "type": "uint8",
                  "internalType": "enum Protocol.OfferStatus"
                }
              ]
            },
            {
              "name": "returnDate",
              "type": "uint256",
              "internalType": "uint256"
            },
            {
              "name": "lender",
              "type": "address",
              "internalType": "address"
            },
            {
              "name": "loanRequestAddr",
              "type": "address",
              "internalType": "address"
            },
            {
              "name": "status",
              "type": "uint8",
              "internalType": "enum Protocol.Status"
            }
          ]
        }
      ],
      "stateMutability": "view"
    },
    {
      "type": "function",
      "name": "get_gitCoinPoint",
      "inputs": [
        {
          "name": "_user",
          "type": "address",
          "internalType": "address"
        }
      ],
      "outputs": [
        {
          "name": "_score",
          "type": "uint256",
          "internalType": "uint256"
        }
      ],
      "stateMutability": "view"
    },
    {
      "type": "function",
      "name": "gets_addressToCollateralDeposited",
      "inputs": [
        {
          "name": "_sender",
          "type": "address",
          "internalType": "address"
        },
        {
          "name": "_tokenAddr",
          "type": "address",
          "internalType": "address"
        }
      ],
      "outputs": [
        {
          "name": "",
          "type": "uint256",
          "internalType": "uint256"
        }
      ],
      "stateMutability": "view"
    },
    {
      "type": "function",
      "name": "initialize",
      "inputs": [
        {
          "name": "_initialOwner",
          "type": "address",
          "internalType": "address"
        },
        {
          "name": "_tokens",
          "type": "address[]",
          "internalType": "address[]"
        },
        {
          "name": "_priceFeeds",
          "type": "bytes4[]",
          "internalType": "bytes4[]"
        },
        {
          "name": "_peerAddress",
          "type": "address",
          "internalType": "address"
        },
        {
          "name": "_witnetPriceFeedsAddress",
          "type": "address",
          "internalType": "address"
        }
      ],
      "outputs": [],
      "stateMutability": "nonpayable"
    },
    {
      "type": "function",
      "name": "isVerified",
      "inputs": [
        {
          "name": "_user",
          "type": "address",
          "internalType": "address"
        }
      ],
      "outputs": [
        {
          "name": "",
          "type": "bool",
          "internalType": "bool"
        }
      ],
      "stateMutability": "view"
    },
    {
      "type": "function",
      "name": "makeLendingOffer",
      "inputs": [
        {
          "name": "_borrower",
          "type": "address",
          "internalType": "address"
        },
        {
          "name": "_requestId",
          "type": "uint96",
          "internalType": "uint96"
        },
        {
          "name": "_amount",
          "type": "uint256",
          "internalType": "uint256"
        },
        {
          "name": "_interest",
          "type": "uint8",
          "internalType": "uint8"
        },
        {
          "name": "_returnedDate",
          "type": "uint256",
          "internalType": "uint256"
        },
        {
          "name": "_tokenAddress",
          "type": "address",
          "internalType": "address"
        }
      ],
      "outputs": [],
      "stateMutability": "nonpayable"
    },
    {
      "type": "function",
      "name": "owner",
      "inputs": [],
      "outputs": [
        {
          "name": "",
          "type": "address",
          "internalType": "address"
        }
      ],
      "stateMutability": "view"
    },
    {
      "type": "function",
      "name": "proxiableUUID",
      "inputs": [],
      "outputs": [
        {
          "name": "",
          "type": "bytes32",
          "internalType": "bytes32"
        }
      ],
      "stateMutability": "view"
    },
    {
      "type": "function",
      "name": "removeCollateralTokens",
      "inputs": [
        {
          "name": "_tokens",
          "type": "address[]",
          "internalType": "address[]"
        }
      ],
      "outputs": [],
      "stateMutability": "nonpayable"
    },
    {
      "type": "function",
      "name": "renounceOwnership",
      "inputs": [],
      "outputs": [],
      "stateMutability": "nonpayable"
    },
    {
      "type": "function",
      "name": "repayLoan",
      "inputs": [
        {
          "name": "_requestId",
          "type": "uint96",
          "internalType": "uint96"
        },
        {
          "name": "_amount",
          "type": "uint256",
          "internalType": "uint256"
        }
      ],
      "outputs": [],
      "stateMutability": "nonpayable"
    },
    {
      "type": "function",
      "name": "respondToLendingOffer",
      "inputs": [
        {
          "name": "_requestId",
          "type": "uint96",
          "internalType": "uint96"
        },
        {
          "name": "_offerId",
          "type": "uint96",
          "internalType": "uint96"
        },
        {
          "name": "_status",
          "type": "uint8",
          "internalType": "enum Protocol.OfferStatus"
        }
      ],
      "outputs": [],
      "stateMutability": "nonpayable"
    },
    {
      "type": "function",
      "name": "serviceRequest",
      "inputs": [
        {
          "name": "_borrower",
          "type": "address",
          "internalType": "address"
        },
        {
          "name": "_requestId",
          "type": "uint8",
          "internalType": "uint8"
        },
        {
          "name": "_tokenAddress",
          "type": "address",
          "internalType": "address"
        }
      ],
      "outputs": [],
      "stateMutability": "nonpayable"
    },
    {
      "type": "function",
      "name": "transferOwnership",
      "inputs": [
        {
          "name": "newOwner",
          "type": "address",
          "internalType": "address"
        }
      ],
      "outputs": [],
      "stateMutability": "nonpayable"
    },
    {
      "type": "function",
      "name": "updateEmail",
      "inputs": [
        {
          "name": "_user",
          "type": "address",
          "internalType": "address"
        },
        {
          "name": "_email",
          "type": "string",
          "internalType": "string"
        },
        {
          "name": "_status",
          "type": "bool",
          "internalType": "bool"
        }
      ],
      "outputs": [],
      "stateMutability": "nonpayable"
    },
    {
      "type": "function",
      "name": "updateGPScore",
      "inputs": [
        {
          "name": "_user",
          "type": "address",
          "internalType": "address"
        },
        {
          "name": "_score",
          "type": "uint256",
          "internalType": "uint256"
        }
      ],
      "outputs": [],
      "stateMutability": "nonpayable"
    },
    {
      "type": "function",
      "name": "upgradeToAndCall",
      "inputs": [
        {
          "name": "newImplementation",
          "type": "address",
          "internalType": "address"
        },
        {
          "name": "data",
          "type": "bytes",
          "internalType": "bytes"
        }
      ],
      "outputs": [],
      "stateMutability": "payable"
    },
    {
      "type": "function",
      "name": "withdrawCollateral",
      "inputs": [
        {
          "name": "_tokenCollateralAddress",
          "type": "address",
          "internalType": "address"
        },
        {
          "name": "_amount",
          "type": "uint256",
          "internalType": "uint256"
        }
      ],
      "outputs": [],
      "stateMutability": "nonpayable"
    },
    {
      "type": "function",
      "name": "witnetPriceFeeds",
      "inputs": [],
      "outputs": [
        {
          "name": "",
          "type": "address",
          "internalType": "contract IWitnetPriceFeeds"
        }
      ],
      "stateMutability": "view"
    },
    {
      "type": "event",
      "name": "CollateralDeposited",
      "inputs": [
        {
          "name": "_sender",
          "type": "address",
          "indexed": true,
          "internalType": "address"
        },
        {
          "name": "_token",
          "type": "address",
          "indexed": true,
          "internalType": "address"
        },
        {
          "name": "_value",
          "type": "uint256",
          "indexed": false,
          "internalType": "uint256"
        }
      ],
      "anonymous": false
    },
    {
      "type": "event",
      "name": "CollateralWithdrawn",
      "inputs": [
        {
          "name": "sender",
          "type": "address",
          "indexed": true,
          "internalType": "address"
        },
        {
          "name": "_tokenCollateralAddress",
          "type": "address",
          "indexed": true,
          "internalType": "address"
        },
        {
          "name": "_amount",
          "type": "uint256",
          "indexed": false,
          "internalType": "uint256"
        }
      ],
      "anonymous": false
    },
    {
      "type": "event",
      "name": "Initialized",
      "inputs": [
        {
          "name": "version",
          "type": "uint64",
          "indexed": false,
          "internalType": "uint64"
        }
      ],
      "anonymous": false
    },
    {
      "type": "event",
      "name": "LoanRepayment",
      "inputs": [
        {
          "name": "sender",
          "type": "address",
          "indexed": true,
          "internalType": "address"
        },
        {
          "name": "id",
          "type": "uint96",
          "indexed": false,
          "internalType": "uint96"
        },
        {
          "name": "amount",
          "type": "uint256",
          "indexed": false,
          "internalType": "uint256"
        }
      ],
      "anonymous": false
    },
    {
      "type": "event",
      "name": "OfferAccepted",
      "inputs": [
        {
          "name": "sender",
          "type": "address",
          "indexed": true,
          "internalType": "address"
        },
        {
          "name": "id",
          "type": "uint96",
          "indexed": false,
          "internalType": "uint96"
        },
        {
          "name": "amount",
          "type": "uint256",
          "indexed": true,
          "internalType": "uint256"
        }
      ],
      "anonymous": false
    },
    {
      "type": "event",
      "name": "OfferCreated",
      "inputs": [
        {
          "name": "_lender",
          "type": "address",
          "indexed": true,
          "internalType": "address"
        },
        {
          "name": "indexed_tokenAddress",
          "type": "address",
          "indexed": false,
          "internalType": "address"
        },
        {
          "name": "_amount",
          "type": "uint256",
          "indexed": false,
          "internalType": "uint256"
        },
        {
          "name": "_requestId",
          "type": "uint96",
          "indexed": true,
          "internalType": "uint96"
        }
      ],
      "anonymous": false
    },
    {
      "type": "event",
      "name": "OwnershipTransferred",
      "inputs": [
        {
          "name": "previousOwner",
          "type": "address",
          "indexed": true,
          "internalType": "address"
        },
        {
          "name": "newOwner",
          "type": "address",
          "indexed": true,
          "internalType": "address"
        }
      ],
      "anonymous": false
    },
    {
      "type": "event",
      "name": "RequestCreated",
      "inputs": [
        {
          "name": "_borrower",
          "type": "address",
          "indexed": true,
          "internalType": "address"
        },
        {
          "name": "requestId",
          "type": "uint96",
          "indexed": true,
          "internalType": "uint96"
        },
        {
          "name": "_amount",
          "type": "uint256",
          "indexed": false,
          "internalType": "uint256"
        },
        {
          "name": "_interest",
          "type": "uint8",
          "indexed": false,
          "internalType": "uint8"
        }
      ],
      "anonymous": false
    },
    {
      "type": "event",
      "name": "RespondToLendingOffer",
      "inputs": [
        {
          "name": "sender",
          "type": "address",
          "indexed": true,
          "internalType": "address"
        },
        {
          "name": "_offerId",
          "type": "uint256",
          "indexed": true,
          "internalType": "uint256"
        },
        {
          "name": "_status",
          "type": "uint8",
          "indexed": false,
          "internalType": "uint8"
        },
        {
          "name": "_offerStatus",
          "type": "uint8",
          "indexed": false,
          "internalType": "uint8"
        }
      ],
      "anonymous": false
    },
    {
      "type": "event",
      "name": "ServiceRequestSuccessful",
      "inputs": [
        {
          "name": "sender",
          "type": "address",
          "indexed": true,
          "internalType": "address"
        },
        {
          "name": "_borrower",
          "type": "address",
          "indexed": true,
          "internalType": "address"
        },
        {
          "name": "_requestId",
          "type": "uint8",
          "indexed": false,
          "internalType": "uint8"
        },
        {
          "name": "amount",
          "type": "uint256",
          "indexed": false,
          "internalType": "uint256"
        }
      ],
      "anonymous": false
    },
    {
      "type": "event",
      "name": "UpdateLoanableToken",
      "inputs": [
        {
          "name": "_token",
          "type": "address",
          "indexed": true,
          "internalType": "address"
        },
        {
          "name": "_priceFeed",
          "type": "bytes4",
          "indexed": false,
          "internalType": "bytes4"
        },
        {
          "name": "sender",
          "type": "address",
          "indexed": true,
          "internalType": "address"
        }
      ],
      "anonymous": false
    },
    {
      "type": "event",
      "name": "UpdatedCollateralTokens",
      "inputs": [
        {
          "name": "sender",
          "type": "address",
          "indexed": true,
          "internalType": "address"
        },
        {
          "name": "newTokensCount",
          "type": "uint8",
          "indexed": false,
          "internalType": "uint8"
        }
      ],
      "anonymous": false
    },
    {
      "type": "event",
      "name": "Upgraded",
      "inputs": [
        {
          "name": "implementation",
          "type": "address",
          "indexed": true,
          "internalType": "address"
        }
      ],
      "anonymous": false
    },
    {
      "type": "event",
      "name": "log",
      "inputs": [
        {
          "name": "message",
          "type": "string",
          "indexed": false,
          "internalType": "string"
        }
      ],
      "anonymous": false
    },
    {
      "type": "error",
      "name": "AddressEmptyCode",
      "inputs": [
        {
          "name": "target",
          "type": "address",
          "internalType": "address"
        }
      ]
    },
    {
      "type": "error",
      "name": "ERC1967InvalidImplementation",
      "inputs": [
        {
          "name": "implementation",
          "type": "address",
          "internalType": "address"
        }
      ]
    },
    {
      "type": "error",
      "name": "ERC1967NonPayable",
      "inputs": []
    },
    {
      "type": "error",
      "name": "FailedInnerCall",
      "inputs": []
    },
    {
      "type": "error",
      "name": "InvalidInitialization",
      "inputs": []
    },
    {
      "type": "error",
      "name": "NotInitializing",
      "inputs": []
    },
    {
      "type": "error",
      "name": "OwnableInvalidOwner",
      "inputs": [
        {
          "name": "owner",
          "type": "address",
          "internalType": "address"
        }
      ]
    },
    {
      "type": "error",
      "name": "OwnableUnauthorizedAccount",
      "inputs": [
        {
          "name": "account",
          "type": "address",
          "internalType": "address"
        }
      ]
    },
    {
      "type": "error",
      "name": "Protocol__BreaksHealthFactor",
      "inputs": []
    },
    {
      "type": "error",
      "name": "Protocol__DateMustBeInFuture",
      "inputs": []
    },
    {
      "type": "error",
      "name": "Protocol__EmailNotVerified",
      "inputs": []
    },
    {
      "type": "error",
      "name": "Protocol__InsufficientAllowance",
      "inputs": []
    },
    {
      "type": "error",
      "name": "Protocol__InsufficientBalance",
      "inputs": []
    },
    {
      "type": "error",
      "name": "Protocol__InsufficientCollateral",
      "inputs": []
    },
    {
      "type": "error",
      "name": "Protocol__InsufficientCollateralDeposited",
      "inputs": []
    },
    {
      "type": "error",
      "name": "Protocol__InvalidAmount",
      "inputs": []
    },
    {
      "type": "error",
      "name": "Protocol__InvalidId",
      "inputs": []
    },
    {
      "type": "error",
      "name": "Protocol__InvalidToken",
      "inputs": []
    },
    {
      "type": "error",
      "name": "Protocol__MustBeMoreThanZero",
      "inputs": []
    },
    {
      "type": "error",
      "name": "Protocol__OfferNotOpen",
      "inputs": []
    },
    {
      "type": "error",
      "name": "Protocol__RequestNotOpen",
      "inputs": []
    },
    {
      "type": "error",
      "name": "Protocol__RequestNotServiced",
      "inputs": []
    },
    {
      "type": "error",
      "name": "Protocol__TokenNotAllowed",
      "inputs": []
    },
    {
      "type": "error",
      "name": "Protocol__TokenNotLoanable",
      "inputs": []
    },
    {
      "type": "error",
      "name": "Protocol__TransferFailed",
      "inputs": []
    },
    {
      "type": "error",
      "name": "Protocol__Unauthorized",
      "inputs": []
    },
    {
      "type": "error",
      "name": "Protocol__tokensAndPriceFeedsArrayMustBeSameLength",
      "inputs": []
    },
    {
      "type": "error",
      "name": "UUPSUnauthorizedCallContext",
      "inputs": []
    },
    {
      "type": "error",
      "name": "UUPSUnsupportedProxiableUUID",
      "inputs": [
        {
          "name": "slot",
          "type": "bytes32",
          "internalType": "bytes32"
        }
      ]
    }
  ],
  "bytecode": {
    "object": "0x60a06040523060805234801561001457600080fd5b5060805161460c61003e600039600081816131220152818161314b015261328c015261460c6000f3fe6080604052600436106101e35760003560e01c80638da5cb5b11610102578063bf34394311610095578063f2cc0ba511610064578063f2cc0ba514610619578063f2fde38b14610652578063f6a6c1e214610672578063f9f22ec21461069257600080fd5b8063bf34394314610599578063c147a892146105b9578063c660d112146105d9578063ecb0fe38146105f957600080fd5b8063a6f34229116100d1578063a6f34229146104e0578063ad3cb1cc14610500578063b202dc2014610531578063b9209e331461054657600080fd5b80638da5cb5b146104225780639480e94814610473578063948275fb146104a0578063a5d5db0c146104c057600080fd5b8063527ed1261161017a5780635894473011610149578063589447301461039e578063715018a6146103cb5780637d1a4450146103e057806386f5483f1461040057600080fd5b8063527ed126146102f357806352d1902d14610347578063545569ba1461035c578063553b41c61461037e57600080fd5b8063350c35e9116101b6578063350c35e91461028057806341239496146102a057806342e292c1146102c05780634f1ef286146102e057600080fd5b806302727e34146101e8578063065a1f871461021e5780631143e606146102405780631308aedc14610260575b600080fd5b3480156101f457600080fd5b50610208610203366004613928565b6106b2565b6040516102159190613aef565b60405180910390f35b34801561022a57600080fd5b5061023e610239366004613bc4565b610a99565b005b34801561024c57600080fd5b5061020861025b366004613c39565b610ada565b34801561026c57600080fd5b5061023e61027b366004613c7d565b610c9a565b34801561028c57600080fd5b5061023e61029b366004613cc3565b611037565b3480156102ac57600080fd5b5061023e6102bb366004613ced565b6111e5565b3480156102cc57600080fd5b5061023e6102db366004613cc3565b6115b5565b61023e6102ee366004613d30565b6115dc565b3480156102ff57600080fd5b5061033961030e366004613d91565b6001600160a01b03918216600090815260036020908152604080832093909416825291909152205490565b604051908152602001610215565b34801561035357600080fd5b506103396115fb565b34801561036857600080fd5b50610371611618565b6040516102159190613dbb565b34801561038a57600080fd5b5061023e610399366004613f36565b611a32565b3480156103aa57600080fd5b506103be6103b9366004613c39565b611b92565b6040516102159190613f8f565b3480156103d757600080fd5b5061023e611ca2565b3480156103ec57600080fd5b506103396103fb366004613fd8565b611cb6565b34801561040c57600080fd5b50610415611d33565b6040516102159190613ff3565b34801561042e57600080fd5b507f9016d09d72d40fdae2fd8ceac6b6234c7706214fd39c1cd1e609a0528c199300546001600160a01b03165b6040516001600160a01b039091168152602001610215565b34801561047f57600080fd5b5061049361048e366004613fd8565b611d95565b6040516102159190614058565b3480156104ac57600080fd5b5061023e6104bb36600461408b565b611e41565b3480156104cc57600080fd5b5061023e6104db366004613cc3565b61218c565b3480156104ec57600080fd5b50600e5461045b906001600160a01b031681565b34801561050c57600080fd5b50610493604051806040016040528060058152602001640352e302e360dc1b81525081565b34801561053d57600080fd5b50610415612300565b34801561055257600080fd5b50610589610561366004613fd8565b6001600160a01b0316600090815260046020526040902060010154600160a01b900460ff1690565b6040519015158152602001610215565b3480156105a557600080fd5b5061023e6105b4366004614120565b612360565b3480156105c557600080fd5b5061023e6105d4366004614186565b6126e3565b3480156105e557600080fd5b506103396105f4366004613cc3565b61291c565b34801561060557600080fd5b5061023e6106143660046141a2565b612a13565b34801561062557600080fd5b50610339610634366004613fd8565b6001600160a01b031660009081526004602052604090206002015490565b34801561065e57600080fd5b5061023e61066d366004613fd8565b612c4d565b34801561067e57600080fd5b5061023e61068d3660046141e2565b612c8b565b34801561069e57600080fd5b5061023e6106ad36600461420c565b612d55565b6106ba61376c565b816001600160601b03166000036106e45760405163239de89960e11b815260040160405180910390fd5b6008546001600160601b0383161061070f5760405163239de89960e11b815260040160405180910390fd5b6000600861071e60018561425e565b6001600160601b03168154811061073757610737614285565b600091825260208083206040805161014081018252600890940290910180546001600160601b03811685526001600160a01b03600160601b9091041684840152600181015484830152600281015460ff166060850152600381015460808501526004810180548351818602810186019094528084529495919460a08701949192909184015b828210156108725760008481526020908190206040805160e081018252600786029092018054835260018101546001600160a01b03908116948401949094526002808201549094169183019190915260038101546060830152600481015460ff9081166080840152600582015460a084015260068201549293919260c085019291169081111561084e5761084e613943565b600281111561085f5761085f613943565b81525050815260200190600101906107bc565b505050908252506005820154602082015260068201546001600160a01b03908116604083015260078301549081166060830152608090910190600160a01b900460ff1660028111156108c6576108c6613943565b60028111156108d7576108d7613943565b9052506020808201516001600160a01b0390811660009081526005835260408082206001600160601b03808a16845290855281832082516101408101845281549283168152600160601b90920490941681860152600184015481830152600284015460ff166060820152600384015460808201526004840180548351818802810188019094528084529697509295909460a08601939190879084015b82821015610a295760008481526020908190206040805160e081018252600786029092018054835260018101546001600160a01b03908116948401949094526002808201549094169183019190915260038101546060830152600481015460ff9081166080840152600582015460a084015260068201549293919260c0850192911690811115610a0557610a05613943565b6002811115610a1657610a16613943565b8152505081526020019060010190610973565b505050908252506005820154602082015260068201546001600160a01b03908116604083015260078301549081166060830152608090910190600160a01b900460ff166002811115610a7d57610a7d613943565b6002811115610a8e57610a8e613943565b905250949350505050565b6001600160a01b038316600090815260046020526040902060018101805460ff60a01b1916600160a01b84151502179055610ad4838261431f565b50505050565b610ae261376c565b6001600160a01b0380841660009081526005602090815260408083206001600160601b03808816855290835281842082516101408101845281549283168152600160601b90920490951681840152600185015481830152600285015460ff1660608201526003850154608082015260048501805483518186028101860190945280845291959460a087019491929184015b82821015610c295760008481526020908190206040805160e081018252600786029092018054835260018101546001600160a01b03908116948401949094526002808201549094169183019190915260038101546060830152600481015460ff9081166080840152600582015460a084015260068201549293919260c0850192911690811115610c0557610c05613943565b6002811115610c1657610c16613943565b8152505081526020019060010190610b73565b505050908252506005820154602082015260068201546001600160a01b03908116604083015260078301549081166060830152608090910190600160a01b900460ff166002811115610c7d57610c7d613943565b6002811115610c8e57610c8e613943565b90525090505b92915050565b610ca384612f52565b6001600160a01b03811660009081526002602052604090205460ff16610cdc576040516356d7e0a760e11b815260040160405180910390fd5b610ce533612f73565b6000610cf1828661291c565b90506001811015610d1557604051632894e1e760e11b815260040160405180910390fd5b6000610d2033611cb6565b905060006064610d318360556143de565b610d3b91906143f5565b336000908152600460205260409020600301549091508190610d5e908590614417565b10610d7c576040516301401b1b60e61b815260040160405180910390fd5b600a54610d93906001600160601b0316600161442a565b600a80546bffffffffffffffffffffffff19166001600160601b03929092169182179055336000818152600560208181526040808420868552909152909120600160601b90920290921781556001810189905560028101805460ff191660ff8a16179055908101869055610e0986898988612fb6565b600382019081556007820180546001600160a01b038881166001600160a81b031990921691909117909155600880546001818101835560008390528554919092027ff3f7a9fe364faab93b216da50a3214154f22a0a2b415b23a84c8169e8b636ee3810180546bffffffffffffffffffffffff19166001600160601b0390931692831781558654600160601b908190049095169094029091178355908401547ff3f7a9fe364faab93b216da50a3214154f22a0a2b415b23a84c8169e8b636ee482015560028401547ff3f7a9fe364faab93b216da50a3214154f22a0a2b415b23a84c8169e8b636ee58201805460ff191660ff90921691909117905591547ff3f7a9fe364faab93b216da50a3214154f22a0a2b415b23a84c8169e8b636ee68301556004830180548493610f61927ff3f7a9fe364faab93b216da50a3214154f22a0a2b415b23a84c8169e8b636ee7909101916137bd565b506005828101549082015560068083015490820180546001600160a01b03199081166001600160a01b03938416179091556007808501805491850180549384169290941691821784555460ff600160a01b918290041693926001600160a81b03191690911790836002811115610fd957610fd9613943565b021790555050600a54604080518b815260ff8b1660208201526001600160601b03909216925033917f0807eacd5bad907205ebefdda3454f0f6cc3a26350e903c00cb8ea89a8d05a7c91015b60405180910390a35050505050505050565b61104081612f52565b61104b826001612ff6565b61105433612f73565b3360009081526003602090815260408083206001600160a01b03861684529091529020548181101561109957604051634a1dbc7160e11b815260040160405180910390fd5b3360009081526003602090815260408083206001600160a01b0387168452909152812080548492906110cc90849061444a565b909155506110db905033613039565b60405163a9059cbb60e01b8152336004820152602481018390526000906001600160a01b0385169063a9059cbb906044016020604051808303816000875af115801561112b573d6000803e3d6000fd5b505050506040513d601f19601f8201168201806040525081019061114f919061445d565b90508061119e5760405162461bcd60e51b8152602060048201526018602482015277141c9bdd1bd8dbdb17d7d51c985b9cd9995c91985a5b195960421b60448201526064015b60405180910390fd5b6040518381526001600160a01b0385169033907f45892a46e6cef329bb642da6d69846d324db43d19008edc141ed82382eda1bee906020015b60405180910390a350505050565b6111ee33612f73565b6001600160a01b038316600090815260056020908152604080832060ff861684529091528120906007820154600160a01b900460ff16600281111561123557611235613943565b1461125357604051630308adab60e11b815260040160405180910390fd5b60078101546001600160a01b0383811691161461128357604051638d6a7ae360e01b815260040160405180910390fd5b6006810180546001600160a01b031916331790556007810180546001919060ff60a01b1916600160a01b83021790555060018101546040516370a0823160e01b815233600482015281906001600160a01b038516906370a0823190602401602060405180830381865afa1580156112fe573d6000803e3d6000fd5b505050506040513d601f19601f82011682018060405250810190611322919061447a565b101561134157604051632c67d2bb60e21b815260040160405180910390fd5b604051636eb1769f60e11b815233600482015230602482015281906001600160a01b0385169063dd62ed3e90604401602060405180830381865afa15801561138d573d6000803e3d6000fd5b505050506040513d601f19601f820116820180604052508101906113b1919061447a565b10156113d05760405163664487c960e11b815260040160405180910390fd5b60006113dc848361291c565b600584015460018501546002860154600787015493945060009361140e93929160ff16906001600160a01b0316612fb6565b6114189083614417565b60038581018290558554600160601b90046001600160a01b0316600090815260046020526040812090910180549293508392909190611458908490614417565b9091555050835460019061147b90600160601b90046001600160a01b0316613068565b101561149a576040516301401b1b60e61b815260040160405180910390fd5b6040516323b872dd60e01b81526000906001600160a01b038716906323b872dd906114cd9033908c908990600401614493565b6020604051808303816000875af11580156114ec573d6000803e3d6000fd5b505050506040513d601f19601f82011682018060405250810190611510919061445d565b90508061155a5760405162461bcd60e51b8152602060048201526018602482015277141c9bdd1bd8dbdb17d7d51c985b9cd9995c91985a5b195960421b6044820152606401611195565b60078501805460ff60a01b1916600160a01b1790556040805160ff89168152602081018690526001600160a01b038a169133917f68ef04fb42d7e82507c8eaf02fcc640e240c344b11c6df3e26f182cde14b5df69101611025565b6115bd6130bc565b6001600160a01b03909116600090815260046020526040902060020155565b6115e4613117565b6115ed826131bc565b6115f782826131c4565b5050565b6000611605613281565b506000805160206145b783398151915290565b600a5460609060016001600160601b03909116101561164a5760405163239de89960e11b815260040160405180910390fd5b6009546001111561166e5760405163239de89960e11b815260040160405180910390fd5b6000805b6009548110156117265760005b600a546001600160601b039081169082161161171d5760006001600160a01b031660056000600985815481106116b7576116b7614285565b60009182526020808320909101546001600160a01b03908116845283820194909452604092830182206001600160601b038716835290522054600160601b9004161461170b5782611707816144b7565b9350505b80611715816144d0565b91505061167f565b50600101611672565b506000816001600160401b0381111561174157611741613b19565b60405190808252806020026020018201604052801561177a57816020015b61176761376c565b81526020019060019003908161175f5790505b5090506000805b600954811015611a295760005b600a546001600160601b0390811690821611611a205760006001600160a01b031660056000600985815481106117c6576117c6614285565b60009182526020808320909101546001600160a01b03908116845283820194909452604092830182206001600160601b038716835290522054600160601b90041614611a0e57600560006009848154811061182357611823614285565b60009182526020808320909101546001600160a01b03908116845283820194909452604092830182206001600160601b03808716845290825283832084516101408101865281549283168152600160601b90920490951681830152600185015481850152600285015460ff1660608201526003850154608082015260048501805485518185028101850190965280865291959460a0870194909391929184015b828210156119795760008481526020908190206040805160e081018252600786029092018054835260018101546001600160a01b03908116948401949094526002808201549094169183019190915260038101546060830152600481015460ff9081166080840152600582015460a084015260068201549293919260c085019291169081111561195557611955613943565b600281111561196657611966613943565b81525050815260200190600101906118c3565b505050908252506005820154602082015260068201546001600160a01b03908116604083015260078301549081166060830152608090910190600160a01b900460ff1660028111156119cd576119cd613943565b60028111156119de576119de613943565b815250508484815181106119f4576119f4614285565b60200260200101819052508280611a0a906144b7565b9350505b80611a18816144d0565b91505061178e565b50600101611781565b50909392505050565b611a3a6130bc565b611a4333612f73565b8051825114611a655760405163082e439b60e31b815260040160405180910390fd5b60005b82518160ff161015611b5157818160ff1681518110611a8957611a89614285565b602002602001015160016000858460ff1681518110611aaa57611aaa614285565b60200260200101516001600160a01b03166001600160a01b0316815260200190815260200160002060006101000a81548163ffffffff021916908360e01c02179055506006838260ff1681518110611b0457611b04614285565b60209081029190910181015182546001810184556000938452919092200180546001600160a01b0319166001600160a01b0390921691909117905580611b49816144f6565b915050611a68565b5060065460405160ff909116815233907f0925d805c5c6b06c1ed914b3b0fbc81bd432609f86b0b87d11c28ce5589eaa559060200160405180910390a25050565b6001600160a01b03821660009081526005602090815260408083206001600160601b0385168452825280832060048101805483518186028101860190945280845260609592949192909184015b82821015611c955760008481526020908190206040805160e081018252600786029092018054835260018101546001600160a01b03908116948401949094526002808201549094169183019190915260038101546060830152600481015460ff9081166080840152600582015460a084015260068201549293919260c0850192911690811115611c7157611c71613943565b6002811115611c8257611c82613943565b8152505081526020019060010190611bdf565b5050505091505092915050565b611caa6130bc565b611cb460006132ca565b565b6000805b600654811015611d2d57600060068281548110611cd957611cd9614285565b60009182526020808320909101546001600160a01b03878116845260038352604080852091909216808552925290912054909150611d17828261291c565b611d219085614417565b93505050600101611cba565b50919050565b60606007805480602002602001604051908101604052809291908181526020018280548015611d8b57602002820191906000526020600020905b81546001600160a01b03168152600190910190602001808311611d6d575b5050505050905090565b6001600160a01b0381166000908152600460205260409020805460609190611dbc9061429b565b80601f0160208091040260200160405190810160405280929190818152602001828054611de89061429b565b8015611e355780601f10611e0a57610100808354040283529160200191611e35565b820191906000526020600020905b815481529060010190602001808311611e1857829003601f168201915b50505050509050919050565b7ff0c57e16840df040f15088dc2f81fe391c3923bec73e23a9662efc9c229c6a008054600160401b810460ff1615906001600160401b0316600081158015611e865750825b90506000826001600160401b03166001148015611ea25750303b155b905081158015611eb0575080155b15611ece5760405163f92ee8a960e01b815260040160405180910390fd5b845467ffffffffffffffff191660011785558315611ef857845460ff60401b1916600160401b1785555b611f018a61333b565b611f0a8a612c4d565b8751895114611f5b5760405162461bcd60e51b815260206004820152601e60248201527f417272617973206d757374206265207468652073616d65206c656e67746800006044820152606401611195565b60005b89518160ff1610156120a1576001600260008c8460ff1681518110611f8557611f85614285565b60200260200101516001600160a01b03166001600160a01b0316815260200190815260200160002060006101000a81548160ff021916908315150217905550888160ff1681518110611fd957611fd9614285565b6020026020010151600160008c8460ff1681518110611ffa57611ffa614285565b60200260200101516001600160a01b03166001600160a01b0316815260200190815260200160002060006101000a81548163ffffffff021916908360e01c021790555060068a8260ff168151811061205457612054614285565b60209081029190910181015182546001810184556000938452919092200180546001600160a01b0319166001600160a01b0390921691909117905580612099816144f6565b915050611f5e565b50600080546001600160a01b03808a166001600160a01b031992831617909255600e8054928916929091169190911790556040517f41304facd9323d75b11bcdd609cb38effffdb05710f7caf0e9b16c6d9d709f50906121329060208082526017908201527f496e697469616c697a6174696f6e20636f6d706c657465000000000000000000604082015260600190565b60405180910390a1831561218057845460ff60401b19168555604051600181527fc7f505b2f371ae2175ee4913f4499e1f2633a7b5936321eed1cdaeb6115181d29060200160405180910390a15b50505050505050505050565b61219581612f52565b6121a0826001612ff6565b6121a933612f73565b3360009081526003602090815260408083206001600160a01b0386168452909152812080548392906121dc908490614417565b9091555050600980546001810182556000919091527f6e1540171b6c0c960b71a7020d9f60077f6af931a8bbf590da0223dacf75c7af0180546001600160a01b031916339081179091556040518281526001600160a01b03841691907ff1c0dd7e9b98bbff859029005ef89b127af049cd18df1a8d79f0b7e019911e569060200160405180910390a36040516323b872dd60e01b81526000906001600160a01b038416906323b872dd9061229890339030908790600401614493565b6020604051808303816000875af11580156122b7573d6000803e3d6000fd5b505050506040513d601f19601f820116820180604052508101906122db919061445d565b9050806122fb57604051633ef92ae360e01b815260040160405180910390fd5b505050565b60606006805480602002602001604051908101604052809291908181526020018280548015611d8b576020028201919060005260206000209081546001600160a01b03168152600190910190602001808311611d6d575050505050905090565b61236984612f52565b6123758360ff16612f52565b61237e33612f73565b6001600160a01b03861660009081526005602090815260408083206001600160601b03891684529091528120906007820154600160a01b900460ff1660028111156123cb576123cb613943565b146123e957604051630308adab60e11b815260040160405180910390fd5b6040516370a0823160e01b815233600482015285906001600160a01b038416906370a0823190602401602060405180830381865afa15801561242f573d6000803e3d6000fd5b505050506040513d601f19601f82011682018060405250810190612453919061447a565b101561247257604051632c67d2bb60e21b815260040160405180910390fd5b60078101546001600160a01b038381169116146124a257604051638d6a7ae360e01b815260040160405180910390fd5b60405163095ea7b360e01b8152306004820152602481018690526001600160a01b0383169063095ea7b3906044016020604051808303816000875af11580156124ef573d6000803e3d6000fd5b505050506040513d601f19601f82011682018060405250810190612513919061445d565b50600a5461253290600160601b90046001600160601b0316600161442a565b600a600c6101000a8154816001600160601b0302191690836001600160601b031602179055506125956040805160e081018252600080825260208201819052918101829052606081018290526080810182905260a081018290529060c082015290565b600a54600160601b90046001600160601b0316815233604082015260ff851660808201526001600160a01b038316602082015260a08101849052600060c0820181905250606081018681526004808401805460018181018355600092835260209283902086516007909302019182559185015181830180546001600160a01b039283166001600160a01b031991821617909155604087015160028085018054929094169190921617909155935160038201556080850151928101805460ff90941660ff1994851617905560a0850151600582015560c08501516006820180548796939592949193921691849081111561269057612690613943565b021790555050604080516001600160a01b0386168152602081018990526001600160601b038a16925033917fdf16db0d27d7635b8d159cc120b79ee1f896448cea3cfbeed50b227cdcb5d07f9101611025565b6126ec33612f73565b3360009081526005602090815260408083206001600160601b03861684529091528120600781015490919061272a906001600160a01b03168461291c565b905060016007830154600160a01b900460ff16600281111561274e5761274e613943565b1461276c57604051631b582c3360e01b815260040160405180910390fd5b60078201546040516370a0823160e01b81523360048201526001600160a01b0390911690849082906370a0823190602401602060405180830381865afa1580156127ba573d6000803e3d6000fd5b505050506040513d601f19601f820116820180604052508101906127de919061447a565b10156127fd57604051632c67d2bb60e21b815260040160405180910390fd5b81836003015410612827578183600301600082825461281c919061444a565b909155506128359050565b600383018054600090915591505b82600301546000036128575760078301805460ff60a01b1916600160a11b1790555b60068301546040516323b872dd60e01b81526001600160a01b03808416926323b872dd9261288d92339216908990600401614493565b6020604051808303816000875af11580156128ac573d6000803e3d6000fd5b505050506040513d601f19601f820116820180604052508101906128d0919061445d565b50604080516001600160601b03871681526020810186905233917fe4da8da4d1fb918a46281382df3b2a3b88ac58a0f388dd4766074deaf8442e4d910160405180910390a25050505050565b6001600160a01b03821660009081526001602052604081205460e01b6001600160e01b0319811661296057604051638d6a7ae360e01b815260040160405180910390fd5b600e5460405163187b31d560e31b81526001600160e01b0319831660048201526000916001600160a01b03169063c3d98ea890602401608060405180830381865afa1580156129b3573d6000803e3d6000fd5b505050506040513d601f19601f820116820180604052508101906129d79190614515565b8051909150670de0b6b3a7640000856129f56402540be400846143de565b6129ff91906143de565b612a0991906143f5565b9695505050505050565b612a1c33612f73565b3360009081526005602090815260408083206001600160601b03871684529091528120906007820154600160a01b900460ff166002811115612a6057612a60613943565b14612a7e57604051630308adab60e11b815260040160405180910390fd5b60048101546001600160601b0384161115612aac5760405163239de89960e11b815260040160405180910390fd5b600081600401846001600160601b031681548110612acc57612acc614285565b6000918252602082206007909102019150600682015460ff166002811115612af657612af6613943565b14612b1457604051633bb6356d60e11b815260040160405180910390fd5b8154600160601b90046001600160a01b03163314612b45576040516322b9d68360e11b815260040160405180910390fd5b60068101805484919060ff19166001836002811115612b6657612b66613943565b02179055506002836002811115612b7f57612b7f613943565b03612b9457612b8f82828661334c565b612bc1565b6001836002811115612ba857612ba8613943565b03612bc157612bc181600601805460ff19166001179055565b60078201546001600160601b0385169033907fab279fedbdba1d45060b4c9e9bcd25880fd8bb000daf59c9504616277660346290600160a01b900460ff166002811115612c1057612c10613943565b600685015460ff166002811115612c2957612c29613943565b6040805160ff93841681529290911660208301520160405180910390a35050505050565b612c556130bc565b6001600160a01b038116612c7f57604051631e4fbdf760e01b815260006004820152602401611195565b612c88816132ca565b50565b612c936130bc565b6001600160a01b03821660008181526002602090815260408083208054600160ff199091168117909155808352818420805463ffffffff191660e088901c1790556007805491820181559093527fa66cc928b5edb82af9bd49922954155ab7b0942694bea4ce44661d9a8736c68890920180546001600160a01b0319168417905590516001600160e01b0319841681523392917f7607e5fd817ec3fbaad80105eb4a8425ebf52344b92c52a2cc77e274adc6d451910160405180910390a35050565b612d5d6130bc565b612d6633612f73565b60005b81518160ff161015612f1257600060e01b60016000848460ff1681518110612d9357612d93614285565b60200260200101516001600160a01b03166001600160a01b0316815260200190815260200160002060006101000a81548163ffffffff021916908360e01c021790555060005b60065460ff82161015612eff57828260ff1681518110612dfb57612dfb614285565b60200260200101516001600160a01b031660068260ff1681548110612e2257612e22614285565b6000918252602090912001546001600160a01b031603612eed5760068054612e4c9060019061444a565b81548110612e5c57612e5c614285565b600091825260209091200154600680546001600160a01b039092169160ff8416908110612e8b57612e8b614285565b9060005260206000200160006101000a8154816001600160a01b0302191690836001600160a01b031602179055506006805480612eca57612eca614584565b600082815260209020810160001990810180546001600160a01b03191690550190555b80612ef7816144f6565b915050612dd9565b5080612f0a816144f6565b915050612d69565b5060065460405160ff909116815233907f0925d805c5c6b06c1ed914b3b0fbc81bd432609f86b0b87d11c28ce5589eaa559060200160405180910390a250565b60008111612c88576040516351c6e81760e01b815260040160405180910390fd5b6001600160a01b038116600090815260046020526040902060010154600160a01b900460ff16612c885760405163ba7330c360e01b815260040160405180910390fd5b600042851015612fd957604051635ac7b73160e01b815260040160405180910390fd5b6000612fe5838661291c565b905060646129ff60ff8616836143de565b6001600160a01b03821660009081526020829052604090205460e01b6001600160e01b0319166115f75760405163335dc1d160e01b815260040160405180910390fd5b600061304482613068565b905060018110156115f7576040516306142b2f60e41b815260040160405180910390fd5b60008060006130768461351f565b90925090506000606461308a6055846143de565b61309491906143f5565b9050826130a9670de0b6b3a7640000836143de565b6130b391906143f5565b95945050505050565b336130ee7f9016d09d72d40fdae2fd8ceac6b6234c7706214fd39c1cd1e609a0528c199300546001600160a01b031690565b6001600160a01b031614611cb45760405163118cdaa760e01b8152336004820152602401611195565b306001600160a01b037f000000000000000000000000000000000000000000000000000000000000000016148061319e57507f00000000000000000000000000000000000000000000000000000000000000006001600160a01b03166131926000805160206145b7833981519152546001600160a01b031690565b6001600160a01b031614155b15611cb45760405163703e46dd60e11b815260040160405180910390fd5b612c886130bc565b816001600160a01b03166352d1902d6040518163ffffffff1660e01b8152600401602060405180830381865afa92505050801561321e575060408051601f3d908101601f1916820190925261321b9181019061447a565b60015b61324657604051634c9c8ce360e01b81526001600160a01b0383166004820152602401611195565b6000805160206145b7833981519152811461327757604051632a87526960e21b815260048101829052602401611195565b6122fb838361354c565b306001600160a01b037f00000000000000000000000000000000000000000000000000000000000000001614611cb45760405163703e46dd60e11b815260040160405180910390fd5b7f9016d09d72d40fdae2fd8ceac6b6234c7706214fd39c1cd1e609a0528c19930080546001600160a01b031981166001600160a01b03848116918217845560405192169182907f8be0079c531659141344cd1fd0a4f28419497f9722a3daafe3b4186f6b6457e090600090a3505050565b6133436135a2565b612c88816135eb565b600282810154600685810180546001600160a01b0319166001600160a01b0393841617905560078601805460ff60a01b1916600160a01b1790558401805460ff191690921790915560058301546003840154600485015460018601546000946133bb94939260ff169116612fb6565b60038581018290558554600160601b90046001600160a01b03166000908152600460205260408120909101805492935083929091906133fb908490614417565b9091555050835460019061341e90600160601b90046001600160a01b0316613068565b101561343d576040516301401b1b60e61b815260040160405180910390fd5b60018301546002840154855460038601546040516323b872dd60e01b81526001600160a01b03948516946323b872dd946134899490821693600160601b90910490911691600401614493565b6020604051808303816000875af11580156134a8573d6000803e3d6000fd5b505050506040513d601f19601f820116820180604052508101906134cc919061445d565b50600383015484546040516001600160601b0385168152600160601b9091046001600160a01b0316907fb025ffaea53389db0d078526e665be7950273096aa78f9163da82946accaa599906020016111d7565b6001600160a01b0381166000908152600460205260408120600301549061354583611cb6565b9050915091565b613555826135f3565b6040516001600160a01b038316907fbc7cd75a20ee27fd9adebab32041f755214dbc6bffa90cc0225b39da2e5c2d3b90600090a280511561359a576122fb8282613658565b6115f76136c5565b7ff0c57e16840df040f15088dc2f81fe391c3923bec73e23a9662efc9c229c6a0054600160401b900460ff16611cb457604051631afcd79f60e31b815260040160405180910390fd5b612c556135a2565b806001600160a01b03163b60000361362957604051634c9c8ce360e01b81526001600160a01b0382166004820152602401611195565b6000805160206145b783398151915280546001600160a01b0319166001600160a01b0392909216919091179055565b6060600080846001600160a01b031684604051613675919061459a565b600060405180830381855af49150503d80600081146136b0576040519150601f19603f3d011682016040523d82523d6000602084013e6136b5565b606091505b50915091506130b38583836136e4565b3415611cb45760405163b398979f60e01b815260040160405180910390fd5b6060826136f9576136f482613743565b61373c565b815115801561371057506001600160a01b0384163b155b1561373957604051639996b31560e01b81526001600160a01b0385166004820152602401611195565b50805b9392505050565b8051156137535780518082602001fd5b604051630a12f52160e11b815260040160405180910390fd5b604080516101408101825260008082526020820181905291810182905260608082018390526080820183905260a082015260c0810182905260e0810182905261010081018290529061012082015290565b82805482825590600052602060002090600702810192821561389d5760005260206000209160070282015b8281111561389d578254825560018084015481840180546001600160a01b03199081166001600160a01b03938416179091556002808701548187018054909316931692909217905560038086015490850155600480860154908501805460ff1990811660ff9384161790915560058088015490870155600680880154908701805489968996939095169491931691849081111561388757613887613943565b02179055505050916007019190600701906137e8565b506138a99291506138ad565b5090565b5b808211156138a95760008082556001820180546001600160a01b031990811690915560028301805490911690556003820181905560048201805460ff19908116909155600583019190915560068201805490911690556007016138ae565b80356001600160601b038116811461392357600080fd5b919050565b60006020828403121561393a57600080fd5b61373c8261390c565b634e487b7160e01b600052602160045260246000fd5b60038110612c8857634e487b7160e01b600052602160045260246000fd5b805182526000602082015160018060a01b03808216602086015280604085015116604086015250506060820151606084015260ff608083015116608084015260a082015160a084015260c08201516139ce81613959565b60c0840152505060e00190565b60008151808452602080850194506020840160005b83811015613a1157613a03878351613977565b9650908201906001016139f0565b509495945050505050565b613a2581613959565b9052565b80516001600160601b0316825260006101406020830151613a5560208601826001600160a01b03169052565b50604083015160408501526060830151613a74606086018260ff169052565b506080830151608085015260a08301518160a0860152613a96828601826139db565b91505060c083015160c085015260e0830151613abd60e08601826001600160a01b03169052565b50610100838101516001600160a01b03169085015261012080840151613ae582870182613a1c565b5090949350505050565b60208152600061373c6020830184613a29565b80356001600160a01b038116811461392357600080fd5b634e487b7160e01b600052604160045260246000fd5b604051601f8201601f191681016001600160401b0381118282101715613b5757613b57613b19565b604052919050565b60006001600160401b03831115613b7857613b78613b19565b613b8b601f8401601f1916602001613b2f565b9050828152838383011115613b9f57600080fd5b828260208301376000602084830101529392505050565b8015158114612c8857600080fd5b600080600060608486031215613bd957600080fd5b613be284613b02565b925060208401356001600160401b03811115613bfd57600080fd5b8401601f81018613613c0e57600080fd5b613c1d86823560208401613b5f565b9250506040840135613c2e81613bb6565b809150509250925092565b60008060408385031215613c4c57600080fd5b613c5583613b02565b9150613c636020840161390c565b90509250929050565b803560ff8116811461392357600080fd5b60008060008060808587031215613c9357600080fd5b84359350613ca360208601613c6c565b925060408501359150613cb860608601613b02565b905092959194509250565b60008060408385031215613cd657600080fd5b613cdf83613b02565b946020939093013593505050565b600080600060608486031215613d0257600080fd5b613d0b84613b02565b9250613d1960208501613c6c565b9150613d2760408501613b02565b90509250925092565b60008060408385031215613d4357600080fd5b613d4c83613b02565b915060208301356001600160401b03811115613d6757600080fd5b8301601f81018513613d7857600080fd5b613d8785823560208401613b5f565b9150509250929050565b60008060408385031215613da457600080fd5b613dad83613b02565b9150613c6360208401613b02565b600060208083016020845280855180835260408601915060408160051b87010192506020870160005b82811015613e1257603f19888603018452613e00858351613a29565b94509285019290850190600101613de4565b5092979650505050505050565b60006001600160401b03821115613e3857613e38613b19565b5060051b60200190565b600082601f830112613e5357600080fd5b81356020613e68613e6383613e1f565b613b2f565b8083825260208201915060208460051b870101935086841115613e8a57600080fd5b602086015b84811015613ead57613ea081613b02565b8352918301918301613e8f565b509695505050505050565b80356001600160e01b03198116811461392357600080fd5b600082601f830112613ee157600080fd5b81356020613ef1613e6383613e1f565b8083825260208201915060208460051b870101935086841115613f1357600080fd5b602086015b84811015613ead57613f2981613eb8565b8352918301918301613f18565b60008060408385031215613f4957600080fd5b82356001600160401b0380821115613f6057600080fd5b613f6c86838701613e42565b93506020850135915080821115613f8257600080fd5b50613d8785828601613ed0565b6020808252825182820181905260009190848201906040850190845b81811015613fcc57613fbe838551613977565b938501939250600101613fab565b50909695505050505050565b600060208284031215613fea57600080fd5b61373c82613b02565b6020808252825182820181905260009190848201906040850190845b81811015613fcc5783516001600160a01b03168352928401929184019160010161400f565b60005b8381101561404f578181015183820152602001614037565b50506000910152565b6020815260008251806020840152614077816040850160208701614034565b601f01601f19169190910160400192915050565b600080600080600060a086880312156140a357600080fd5b6140ac86613b02565b945060208601356001600160401b03808211156140c857600080fd5b6140d489838a01613e42565b955060408801359150808211156140ea57600080fd5b506140f788828901613ed0565b93505061410660608701613b02565b915061411460808701613b02565b90509295509295909350565b60008060008060008060c0878903121561413957600080fd5b61414287613b02565b95506141506020880161390c565b94506040870135935061416560608801613c6c565b92506080870135915061417a60a08801613b02565b90509295509295509295565b6000806040838503121561419957600080fd5b613cdf8361390c565b6000806000606084860312156141b757600080fd5b6141c08461390c565b92506141ce6020850161390c565b9150604084013560038110613c2e57600080fd5b600080604083850312156141f557600080fd5b6141fe83613b02565b9150613c6360208401613eb8565b60006020828403121561421e57600080fd5b81356001600160401b0381111561423457600080fd5b61424084828501613e42565b949350505050565b634e487b7160e01b600052601160045260246000fd5b6001600160601b0382811682821603908082111561427e5761427e614248565b5092915050565b634e487b7160e01b600052603260045260246000fd5b600181811c908216806142af57607f821691505b602082108103611d2d57634e487b7160e01b600052602260045260246000fd5b601f8211156122fb576000816000526020600020601f850160051c810160208610156142f85750805b601f850160051c820191505b8181101561431757828155600101614304565b505050505050565b81516001600160401b0381111561433857614338613b19565b61434c81614346845461429b565b846142cf565b602080601f83116001811461438157600084156143695750858301515b600019600386901b1c1916600185901b178555614317565b600085815260208120601f198616915b828110156143b057888601518255948401946001909101908401614391565b50858210156143ce5787850151600019600388901b60f8161c191681555b5050505050600190811b01905550565b8082028115828204841417610c9457610c94614248565b60008261441257634e487b7160e01b600052601260045260246000fd5b500490565b80820180821115610c9457610c94614248565b6001600160601b0381811683821601908082111561427e5761427e614248565b81810381811115610c9457610c94614248565b60006020828403121561446f57600080fd5b815161373c81613bb6565b60006020828403121561448c57600080fd5b5051919050565b6001600160a01b039384168152919092166020820152604081019190915260600190565b6000600182016144c9576144c9614248565b5060010190565b60006001600160601b038083168181036144ec576144ec614248565b6001019392505050565b600060ff821660ff810361450c5761450c614248565b60010192915050565b60006080828403121561452757600080fd5b604051608081018181106001600160401b038211171561454957614549613b19565b806040525082518152602083015160208201526040830151604082015260608301516006811061457857600080fd5b60608201529392505050565b634e487b7160e01b600052603160045260246000fd5b600082516145ac818460208701614034565b919091019291505056fe360894a13ba1a3210667c828492db98dca3e2076cc3735a920a3ca505d382bbca264697066735822122039a4a158855ce26254e5cca31f8b1ee8097914ea91395b000c6b04af2bf4f43c64736f6c63430008180033",
    "linkReferences": {}
  },
  "methodIdentifiers": {
    "UPGRADE_INTERFACE_VERSION()": "ad3cb1cc",
    "addCollateralTokens(address[],bytes4[])": "553b41c6",
    "addLoanableToken(address,bytes4)": "f6a6c1e2",
    "createLendingRequest(uint256,uint8,uint256,address)": "1308aedc",
    "depositCollateral(address,uint256)": "a5d5db0c",
    "getAccountCollateralValue(address)": "7d1a4450",
    "getAllCollateralToken()": "b202dc20",
    "getAllOfferForUser(address,uint96)": "58944730",
    "getAllRequest()": "545569ba",
    "getLoanableAssets()": "86f5483f",
    "getRequestById(uint96)": "02727e34",
    "getUsdValue(address,uint256)": "c660d112",
    "getUserEmail(address)": "9480e948",
    "getUserRequest(address,uint96)": "1143e606",
    "get_gitCoinPoint(address)": "f2cc0ba5",
    "gets_addressToCollateralDeposited(address,address)": "527ed126",
    "initialize(address,address[],bytes4[],address,address)": "948275fb",
    "isVerified(address)": "b9209e33",
    "makeLendingOffer(address,uint96,uint256,uint8,uint256,address)": "bf343943",
    "owner()": "8da5cb5b",
    "proxiableUUID()": "52d1902d",
    "removeCollateralTokens(address[])": "f9f22ec2",
    "renounceOwnership()": "715018a6",
    "repayLoan(uint96,uint256)": "c147a892",
    "respondToLendingOffer(uint96,uint96,uint8)": "ecb0fe38",
    "serviceRequest(address,uint8,address)": "41239496",
    "transferOwnership(address)": "f2fde38b",
    "updateEmail(address,string,bool)": "065a1f87",
    "updateGPScore(address,uint256)": "42e292c1",
    "upgradeToAndCall(address,bytes)": "4f1ef286",
    "withdrawCollateral(address,uint256)": "350c35e9",
    "witnetPriceFeeds()": "a6f34229"
  },
  "id": 49
}